{
  "contractName": "Disastergirltoken",
  "abi": [
    {
      "inputs": [],
      "stateMutability": "nonpayable",
      "type": "constructor"
    },
    {
      "anonymous": false,
      "inputs": [
        {
          "indexed": true,
          "internalType": "address",
          "name": "owner",
          "type": "address"
        },
        {
          "indexed": true,
          "internalType": "address",
          "name": "spender",
          "type": "address"
        },
        {
          "indexed": false,
          "internalType": "uint256",
          "name": "value",
          "type": "uint256"
        }
      ],
      "name": "Approval",
      "type": "event"
    },
    {
      "anonymous": false,
      "inputs": [
        {
          "indexed": true,
          "internalType": "address",
          "name": "previousOwner",
          "type": "address"
        },
        {
          "indexed": true,
          "internalType": "address",
          "name": "newOwner",
          "type": "address"
        }
      ],
      "name": "OwnershipTransferred",
      "type": "event"
    },
    {
      "anonymous": false,
      "inputs": [
        {
          "indexed": true,
          "internalType": "address",
          "name": "from",
          "type": "address"
        },
        {
          "indexed": true,
          "internalType": "address",
          "name": "to",
          "type": "address"
        },
        {
          "indexed": false,
          "internalType": "uint256",
          "name": "value",
          "type": "uint256"
        }
      ],
      "name": "Transfer",
      "type": "event"
    },
    {
      "inputs": [],
      "name": "geUnlockTime",
      "outputs": [
        {
          "internalType": "uint256",
          "name": "",
          "type": "uint256"
        }
      ],
      "stateMutability": "view",
      "type": "function",
      "constant": true
    },
    {
      "inputs": [
        {
          "internalType": "uint256",
          "name": "time",
          "type": "uint256"
        }
      ],
      "name": "lock",
      "outputs": [],
      "stateMutability": "nonpayable",
      "type": "function"
    },
    {
      "inputs": [],
      "name": "owner",
      "outputs": [
        {
          "internalType": "address",
          "name": "",
          "type": "address"
        }
      ],
      "stateMutability": "view",
      "type": "function",
      "constant": true
    },
    {
      "inputs": [],
      "name": "renounceOwnership",
      "outputs": [],
      "stateMutability": "nonpayable",
      "type": "function"
    },
    {
      "inputs": [
        {
          "internalType": "address",
          "name": "newOwner",
          "type": "address"
        }
      ],
      "name": "transferOwnership",
      "outputs": [],
      "stateMutability": "nonpayable",
      "type": "function"
    },
    {
      "inputs": [],
      "name": "unlock",
      "outputs": [],
      "stateMutability": "nonpayable",
      "type": "function"
    },
    {
      "inputs": [],
      "name": "name",
      "outputs": [
        {
          "internalType": "string",
          "name": "",
          "type": "string"
        }
      ],
      "stateMutability": "view",
      "type": "function",
      "constant": true
    },
    {
      "inputs": [],
      "name": "symbol",
      "outputs": [
        {
          "internalType": "string",
          "name": "",
          "type": "string"
        }
      ],
      "stateMutability": "view",
      "type": "function",
      "constant": true
    },
    {
      "inputs": [],
      "name": "decimals",
      "outputs": [
        {
          "internalType": "uint8",
          "name": "",
          "type": "uint8"
        }
      ],
      "stateMutability": "view",
      "type": "function",
      "constant": true
    },
    {
      "inputs": [],
      "name": "totalSupply",
      "outputs": [
        {
          "internalType": "uint256",
          "name": "",
          "type": "uint256"
        }
      ],
      "stateMutability": "view",
      "type": "function",
      "constant": true
    },
    {
      "inputs": [
        {
          "internalType": "address",
          "name": "account",
          "type": "address"
        }
      ],
      "name": "balanceOf",
      "outputs": [
        {
          "internalType": "uint256",
          "name": "",
          "type": "uint256"
        }
      ],
      "stateMutability": "view",
      "type": "function",
      "constant": true
    },
    {
      "inputs": [
        {
          "internalType": "address",
          "name": "recipient",
          "type": "address"
        },
        {
          "internalType": "uint256",
          "name": "amount",
          "type": "uint256"
        }
      ],
      "name": "transfer",
      "outputs": [
        {
          "internalType": "bool",
          "name": "",
          "type": "bool"
        }
      ],
      "stateMutability": "nonpayable",
      "type": "function"
    },
    {
      "inputs": [
        {
          "internalType": "address",
          "name": "owner",
          "type": "address"
        },
        {
          "internalType": "address",
          "name": "spender",
          "type": "address"
        }
      ],
      "name": "allowance",
      "outputs": [
        {
          "internalType": "uint256",
          "name": "",
          "type": "uint256"
        }
      ],
      "stateMutability": "view",
      "type": "function",
      "constant": true
    },
    {
      "inputs": [
        {
          "internalType": "address",
          "name": "spender",
          "type": "address"
        },
        {
          "internalType": "uint256",
          "name": "amount",
          "type": "uint256"
        }
      ],
      "name": "approve",
      "outputs": [
        {
          "internalType": "bool",
          "name": "",
          "type": "bool"
        }
      ],
      "stateMutability": "nonpayable",
      "type": "function"
    },
    {
      "inputs": [
        {
          "internalType": "address",
          "name": "sender",
          "type": "address"
        },
        {
          "internalType": "address",
          "name": "recipient",
          "type": "address"
        },
        {
          "internalType": "uint256",
          "name": "amount",
          "type": "uint256"
        }
      ],
      "name": "transferFrom",
      "outputs": [
        {
          "internalType": "bool",
          "name": "",
          "type": "bool"
        }
      ],
      "stateMutability": "nonpayable",
      "type": "function"
    },
    {
      "inputs": [
        {
          "internalType": "address",
          "name": "spender",
          "type": "address"
        },
        {
          "internalType": "uint256",
          "name": "addedValue",
          "type": "uint256"
        }
      ],
      "name": "increaseAllowance",
      "outputs": [
        {
          "internalType": "bool",
          "name": "",
          "type": "bool"
        }
      ],
      "stateMutability": "nonpayable",
      "type": "function"
    },
    {
      "inputs": [
        {
          "internalType": "address",
          "name": "spender",
          "type": "address"
        },
        {
          "internalType": "uint256",
          "name": "subtractedValue",
          "type": "uint256"
        }
      ],
      "name": "decreaseAllowance",
      "outputs": [
        {
          "internalType": "bool",
          "name": "",
          "type": "bool"
        }
      ],
      "stateMutability": "nonpayable",
      "type": "function"
    },
    {
      "inputs": [
        {
          "internalType": "address",
          "name": "account",
          "type": "address"
        }
      ],
      "name": "isExcluded",
      "outputs": [
        {
          "internalType": "bool",
          "name": "",
          "type": "bool"
        }
      ],
      "stateMutability": "view",
      "type": "function",
      "constant": true
    },
    {
      "inputs": [],
      "name": "totalFees",
      "outputs": [
        {
          "internalType": "uint256",
          "name": "",
          "type": "uint256"
        }
      ],
      "stateMutability": "view",
      "type": "function",
      "constant": true
    },
    {
      "inputs": [],
      "name": "totalBurn",
      "outputs": [
        {
          "internalType": "uint256",
          "name": "",
          "type": "uint256"
        }
      ],
      "stateMutability": "view",
      "type": "function",
      "constant": true
    },
    {
      "inputs": [
        {
          "internalType": "uint256",
          "name": "tAmount",
          "type": "uint256"
        }
      ],
      "name": "deliver",
      "outputs": [],
      "stateMutability": "nonpayable",
      "type": "function"
    },
    {
      "inputs": [
        {
          "internalType": "uint256",
          "name": "tAmount",
          "type": "uint256"
        },
        {
          "internalType": "bool",
          "name": "deductTransferFee",
          "type": "bool"
        }
      ],
      "name": "reflectionFromToken",
      "outputs": [
        {
          "internalType": "uint256",
          "name": "",
          "type": "uint256"
        }
      ],
      "stateMutability": "view",
      "type": "function",
      "constant": true
    },
    {
      "inputs": [
        {
          "internalType": "uint256",
          "name": "rAmount",
          "type": "uint256"
        }
      ],
      "name": "tokenFromReflection",
      "outputs": [
        {
          "internalType": "uint256",
          "name": "",
          "type": "uint256"
        }
      ],
      "stateMutability": "view",
      "type": "function",
      "constant": true
    },
    {
      "inputs": [
        {
          "internalType": "address",
          "name": "account",
          "type": "address"
        }
      ],
      "name": "excludeAccount",
      "outputs": [],
      "stateMutability": "nonpayable",
      "type": "function"
    },
    {
      "inputs": [
        {
          "internalType": "address",
          "name": "account",
          "type": "address"
        }
      ],
      "name": "includeAccount",
      "outputs": [],
      "stateMutability": "nonpayable",
      "type": "function"
    },
    {
      "inputs": [
        {
          "internalType": "uint256",
          "name": "maxTxPercent",
          "type": "uint256"
        },
        {
          "internalType": "uint256",
          "name": "maxTxDecimals",
          "type": "uint256"
        }
      ],
      "name": "setMaxTxPercent",
      "outputs": [],
      "stateMutability": "nonpayable",
      "type": "function"
    },
    {
      "inputs": [
        {
          "internalType": "uint256",
          "name": "taxFee",
          "type": "uint256"
        }
      ],
      "name": "TAXFEE",
      "outputs": [],
      "stateMutability": "nonpayable",
      "type": "function"
    },
    {
      "inputs": [
        {
          "internalType": "uint256",
          "name": "burnFee",
          "type": "uint256"
        }
      ],
      "name": "BURNFEE",
      "outputs": [],
      "stateMutability": "nonpayable",
      "type": "function"
    },
    {
      "inputs": [
        {
          "internalType": "uint256",
          "name": "amount",
          "type": "uint256"
        }
      ],
      "name": "burn",
      "outputs": [],
      "stateMutability": "nonpayable",
      "type": "function"
    }
  ],
  "bytecode": "0x60806040526040518060400160405280601381526020017f4469736173746572204769726c20546f6b656e000000000000000000000000008152506008908051906020019062000051929190620002da565b506040518060400160405280600481526020017f4449534700000000000000000000000000000000000000000000000000000000815250600990805190602001906200009f929190620002da565b506009600a60006101000a81548160ff021916908360ff160217905550600a60009054906101000a900460ff1660ff16600a620000dd919062000413565b600b55600b5464e8d4a51001620000f5919062000550565b600c55600c546000196200010a91906200062c565b600019620001199190620005b1565b600d55610258601055610258601155600b5464e8d4a510016200013d919062000550565b6012553480156200014d57600080fd5b50600062000160620002d260201b60201c565b9050806000806101000a81548173ffffffffffffffffffffffffffffffffffffffff021916908373ffffffffffffffffffffffffffffffffffffffff1602179055508073ffffffffffffffffffffffffffffffffffffffff16600073ffffffffffffffffffffffffffffffffffffffff167f8be0079c531659141344cd1fd0a4f28419497f9722a3daafe3b4186f6b6457e060405160405180910390a350600d546003600062000215620002d260201b60201c565b73ffffffffffffffffffffffffffffffffffffffff1673ffffffffffffffffffffffffffffffffffffffff1681526020019081526020016000208190555062000263620002d260201b60201c565b73ffffffffffffffffffffffffffffffffffffffff16600073ffffffffffffffffffffffffffffffffffffffff167fddf252ad1be2c89b69c2b068fc378daa952ba7f163c4a11628f55a4df523b3ef600c54604051620002c491906200039b565b60405180910390a3620006fe565b600033905090565b828054620002e890620005f6565b90600052602060002090601f0160209004810192826200030c576000855562000358565b82601f106200032757805160ff191683800117855562000358565b8280016001018555821562000358579182015b82811115620003575782518255916020019190600101906200033a565b5b5090506200036791906200036b565b5090565b5b80821115620003865760008160009055506001016200036c565b5090565b6200039581620005ec565b82525050565b6000602082019050620003b260008301846200038a565b92915050565b6000808291508390505b60018511156200040a57808604811115620003e257620003e162000664565b5b6001851615620003f25780820291505b80810290506200040285620006f1565b9450620003c2565b94509492505050565b60006200042082620005ec565b91506200042d83620005ec565b92506200045c7fffffffffffffffffffffffffffffffffffffffffffffffffffffffffffffffff848462000464565b905092915050565b60008262000476576001905062000549565b8162000486576000905062000549565b81600181146200049f5760028114620004aa57620004e0565b600191505062000549565b60ff841115620004bf57620004be62000664565b5b8360020a915084821115620004d957620004d862000664565b5b5062000549565b5060208310610133831016604e8410600b84101617156200051a5782820a90508381111562000514576200051362000664565b5b62000549565b620005298484846001620003b8565b9250905081840481111562000543576200054262000664565b5b81810290505b9392505050565b60006200055d82620005ec565b91506200056a83620005ec565b9250817fffffffffffffffffffffffffffffffffffffffffffffffffffffffffffffffff0483118215151615620005a657620005a562000664565b5b828202905092915050565b6000620005be82620005ec565b9150620005cb83620005ec565b925082821015620005e157620005e062000664565b5b828203905092915050565b6000819050919050565b600060028204905060018216806200060f57607f821691505b60208210811415620006265762000625620006c2565b5b50919050565b60006200063982620005ec565b91506200064683620005ec565b92508262000659576200065862000693565b5b828206905092915050565b7f4e487b7100000000000000000000000000000000000000000000000000000000600052601160045260246000fd5b7f4e487b7100000000000000000000000000000000000000000000000000000000600052601260045260246000fd5b7f4e487b7100000000000000000000000000000000000000000000000000000000600052602260045260246000fd5b60008160011c9050919050565b6149bd806200070e6000396000f3fe608060405234801561001057600080fd5b50600436106101cf5760003560e01c8063715018a611610104578063cba0e996116100a2578063f2cc0c1811610071578063f2cc0c1814610544578063f2fde38b14610560578063f84354f11461057c578063f90100cd14610598576101cf565b8063cba0e996146104ac578063d4111a10146104dc578063dd467064146104f8578063dd62ed3e14610514576101cf565b8063a457c2d7116100de578063a457c2d714610424578063a69df4b514610454578063a9059cbb1461045e578063b6c523241461048e576101cf565b8063715018a6146103de5780638da5cb5b146103e857806395d89b4114610406576101cf565b806339509351116101715780633f3cf56c1161014b5780633f3cf56c1461034657806342966c68146103625780634549b0391461037e57806370a08231146103ae576101cf565b806339509351146102dc5780633bd5d1731461030c5780633c9f861d14610328576101cf565b806318160ddd116101ad57806318160ddd1461024057806323b872dd1461025e5780632d8381191461028e578063313ce567146102be576101cf565b806306fdde03146101d4578063095ea7b3146101f257806313114a9d14610222575b600080fd5b6101dc6105b4565b6040516101e99190613d1b565b60405180910390f35b61020c6004803603810190610207919061391d565b610646565b6040516102199190613d00565b60405180910390f35b61022a610664565b6040516102379190613f7d565b60405180910390f35b61024861066e565b6040516102559190613f7d565b60405180910390f35b610278600480360381019061027391906138ce565b610678565b6040516102859190613d00565b60405180910390f35b6102a860048036038101906102a39190613959565b610751565b6040516102b59190613f7d565b60405180910390f35b6102c66107bf565b6040516102d39190613f98565b60405180910390f35b6102f660048036038101906102f1919061391d565b6107d6565b6040516103039190613d00565b60405180910390f35b61032660048036038101906103219190613959565b610889565b005b610330610a04565b60405161033d9190613f7d565b60405180910390f35b610360600480360381019061035b91906139be565b610a0e565b005b61037c60048036038101906103779190613959565b610aec565b005b61039860048036038101906103939190613982565b610b00565b6040516103a59190613f7d565b60405180910390f35b6103c860048036038101906103c39190613869565b610b84565b6040516103d59190613f7d565b60405180910390f35b6103e6610c6f565b005b6103f0610dc2565b6040516103fd9190613ce5565b60405180910390f35b61040e610deb565b60405161041b9190613d1b565b60405180910390f35b61043e6004803603810190610439919061391d565b610e7d565b60405161044b9190613d00565b60405180910390f35b61045c610f4a565b005b6104786004803603810190610473919061391d565b61111e565b6040516104859190613d00565b60405180910390f35b61049661113c565b6040516104a39190613f7d565b60405180910390f35b6104c660048036038101906104c19190613869565b611146565b6040516104d39190613d00565b60405180910390f35b6104f660048036038101906104f19190613959565b61119c565b005b610512600480360381019061050d9190613959565b61123b565b005b61052e60048036038101906105299190613892565b611402565b60405161053b9190613f7d565b60405180910390f35b61055e60048036038101906105599190613869565b611489565b005b61057a60048036038101906105759190613869565b6117c0565b005b61059660048036038101906105919190613869565b611982565b005b6105b260048036038101906105ad9190613959565b611d69565b005b6060600880546105c3906142dd565b80601f01602080910402602001604051908101604052809291908181526020018280546105ef906142dd565b801561063c5780601f106106115761010080835404028352916020019161063c565b820191906000526020600020905b81548152906001019060200180831161061f57829003601f168201915b5050505050905090565b600061065a610653611e08565b8484611e10565b6001905092915050565b6000600e54905090565b6000600c54905090565b6000610685848484611fdb565b61074684610691611e08565b6107418560405180606001604052806028815260200161491960289139600560008b73ffffffffffffffffffffffffffffffffffffffff1673ffffffffffffffffffffffffffffffffffffffff16815260200190815260200160002060006106f7611e08565b73ffffffffffffffffffffffffffffffffffffffff1673ffffffffffffffffffffffffffffffffffffffff168152602001908152602001600020546124b39092919063ffffffff16565b611e10565b600190509392505050565b6000600d54821115610798576040517f08c379a000000000000000000000000000000000000000000000000000000000815260040161078f90613d7d565b60405180910390fd5b60006107a2612517565b90506107b7818461254290919063ffffffff16565b915050919050565b6000600a60009054906101000a900460ff16905090565b600061087f6107e3611e08565b8461087a85600560006107f4611e08565b73ffffffffffffffffffffffffffffffffffffffff1673ffffffffffffffffffffffffffffffffffffffff16815260200190815260200160002060008973ffffffffffffffffffffffffffffffffffffffff1673ffffffffffffffffffffffffffffffffffffffff1681526020019081526020016000205461258c90919063ffffffff16565b611e10565b6001905092915050565b6000610893611e08565b9050600660008273ffffffffffffffffffffffffffffffffffffffff1673ffffffffffffffffffffffffffffffffffffffff16815260200190815260200160002060009054906101000a900460ff1615610922576040517f08c379a000000000000000000000000000000000000000000000000000000000815260040161091990613f1d565b60405180910390fd5b600061092d836125ea565b5050505050905061098681600360008573ffffffffffffffffffffffffffffffffffffffff1673ffffffffffffffffffffffffffffffffffffffff1681526020019081526020016000205461265290919063ffffffff16565b600360008473ffffffffffffffffffffffffffffffffffffffff1673ffffffffffffffffffffffffffffffffffffffff168152602001908152602001600020819055506109de81600d5461265290919063ffffffff16565b600d819055506109f983600e5461258c90919063ffffffff16565b600e81905550505050565b6000600f54905090565b610a16611e08565b73ffffffffffffffffffffffffffffffffffffffff1660008054906101000a900473ffffffffffffffffffffffffffffffffffffffff1673ffffffffffffffffffffffffffffffffffffffff1614610aa3576040517f08c379a0000000000000000000000000000000000000000000000000000000008152600401610a9a90613e5d565b60405180910390fd5b610ae2600282610ab39190613fcf565b600a610abf91906140a9565b610ad484600c5461269c90919063ffffffff16565b61254290919063ffffffff16565b6012819055505050565b610afd610af7611e08565b82612717565b50565b6000600c54831115610b47576040517f08c379a0000000000000000000000000000000000000000000000000000000008152600401610b3e90613dfd565b60405180910390fd5b81610b67576000610b57846125ea565b5050505050905080915050610b7e565b6000610b72846125ea565b50505050915050809150505b92915050565b6000600660008373ffffffffffffffffffffffffffffffffffffffff1673ffffffffffffffffffffffffffffffffffffffff16815260200190815260200160002060009054906101000a900460ff1615610c1f57600460008373ffffffffffffffffffffffffffffffffffffffff1673ffffffffffffffffffffffffffffffffffffffff168152602001908152602001600020549050610c6a565b610c67600360008473ffffffffffffffffffffffffffffffffffffffff1673ffffffffffffffffffffffffffffffffffffffff16815260200190815260200160002054610751565b90505b919050565b610c77611e08565b73ffffffffffffffffffffffffffffffffffffffff1660008054906101000a900473ffffffffffffffffffffffffffffffffffffffff1673ffffffffffffffffffffffffffffffffffffffff1614610d04576040517f08c379a0000000000000000000000000000000000000000000000000000000008152600401610cfb90613e5d565b60405180910390fd5b600073ffffffffffffffffffffffffffffffffffffffff1660008054906101000a900473ffffffffffffffffffffffffffffffffffffffff1673ffffffffffffffffffffffffffffffffffffffff167f8be0079c531659141344cd1fd0a4f28419497f9722a3daafe3b4186f6b6457e060405160405180910390a360008060006101000a81548173ffffffffffffffffffffffffffffffffffffffff021916908373ffffffffffffffffffffffffffffffffffffffff160217905550565b60008060009054906101000a900473ffffffffffffffffffffffffffffffffffffffff16905090565b606060098054610dfa906142dd565b80601f0160208091040260200160405190810160405280929190818152602001828054610e26906142dd565b8015610e735780601f10610e4857610100808354040283529160200191610e73565b820191906000526020600020905b815481529060010190602001808311610e5657829003601f168201915b5050505050905090565b6000610f40610e8a611e08565b84610f3b856040518060600160405280602581526020016149416025913960056000610eb4611e08565b73ffffffffffffffffffffffffffffffffffffffff1673ffffffffffffffffffffffffffffffffffffffff16815260200190815260200160002060008a73ffffffffffffffffffffffffffffffffffffffff1673ffffffffffffffffffffffffffffffffffffffff168152602001908152602001600020546124b39092919063ffffffff16565b611e10565b6001905092915050565b3373ffffffffffffffffffffffffffffffffffffffff16600160009054906101000a900473ffffffffffffffffffffffffffffffffffffffff1673ffffffffffffffffffffffffffffffffffffffff1614610fda576040517f08c379a0000000000000000000000000000000000000000000000000000000008152600401610fd190613f5d565b60405180910390fd5b600254421161101e576040517f08c379a000000000000000000000000000000000000000000000000000000000815260040161101590613edd565b60405180910390fd5b600160009054906101000a900473ffffffffffffffffffffffffffffffffffffffff1673ffffffffffffffffffffffffffffffffffffffff1660008054906101000a900473ffffffffffffffffffffffffffffffffffffffff1673ffffffffffffffffffffffffffffffffffffffff167f8be0079c531659141344cd1fd0a4f28419497f9722a3daafe3b4186f6b6457e060405160405180910390a3600160009054906101000a900473ffffffffffffffffffffffffffffffffffffffff166000806101000a81548173ffffffffffffffffffffffffffffffffffffffff021916908373ffffffffffffffffffffffffffffffffffffffff160217905550565b600061113261112b611e08565b8484611fdb565b6001905092915050565b6000600254905090565b6000600660008373ffffffffffffffffffffffffffffffffffffffff1673ffffffffffffffffffffffffffffffffffffffff16815260200190815260200160002060009054906101000a900460ff169050919050565b6111a4611e08565b73ffffffffffffffffffffffffffffffffffffffff1660008054906101000a900473ffffffffffffffffffffffffffffffffffffffff1673ffffffffffffffffffffffffffffffffffffffff1614611231576040517f08c379a000000000000000000000000000000000000000000000000000000000815260040161122890613e5d565b60405180910390fd5b8060118190555050565b611243611e08565b73ffffffffffffffffffffffffffffffffffffffff1660008054906101000a900473ffffffffffffffffffffffffffffffffffffffff1673ffffffffffffffffffffffffffffffffffffffff16146112d0576040517f08c379a00000000000000000000000000000000000000000000000000000000081526004016112c790613e5d565b60405180910390fd5b60008054906101000a900473ffffffffffffffffffffffffffffffffffffffff16600160006101000a81548173ffffffffffffffffffffffffffffffffffffffff021916908373ffffffffffffffffffffffffffffffffffffffff16021790555060008060006101000a81548173ffffffffffffffffffffffffffffffffffffffff021916908373ffffffffffffffffffffffffffffffffffffffff160217905550804261137e9190613fcf565b600281905550600073ffffffffffffffffffffffffffffffffffffffff1660008054906101000a900473ffffffffffffffffffffffffffffffffffffffff1673ffffffffffffffffffffffffffffffffffffffff167f8be0079c531659141344cd1fd0a4f28419497f9722a3daafe3b4186f6b6457e060405160405180910390a350565b6000600560008473ffffffffffffffffffffffffffffffffffffffff1673ffffffffffffffffffffffffffffffffffffffff16815260200190815260200160002060008373ffffffffffffffffffffffffffffffffffffffff1673ffffffffffffffffffffffffffffffffffffffff16815260200190815260200160002054905092915050565b611491611e08565b73ffffffffffffffffffffffffffffffffffffffff1660008054906101000a900473ffffffffffffffffffffffffffffffffffffffff1673ffffffffffffffffffffffffffffffffffffffff161461151e576040517f08c379a000000000000000000000000000000000000000000000000000000000815260040161151590613e5d565b60405180910390fd5b737a250d5630b4cf539739df2c5dacb4c659f2488d73ffffffffffffffffffffffffffffffffffffffff168173ffffffffffffffffffffffffffffffffffffffff1614156115a1576040517f08c379a000000000000000000000000000000000000000000000000000000000815260040161159890613efd565b60405180910390fd5b600660008273ffffffffffffffffffffffffffffffffffffffff1673ffffffffffffffffffffffffffffffffffffffff16815260200190815260200160002060009054906101000a900460ff161561162e576040517f08c379a000000000000000000000000000000000000000000000000000000000815260040161162590613ddd565b60405180910390fd5b6000600360008373ffffffffffffffffffffffffffffffffffffffff1673ffffffffffffffffffffffffffffffffffffffff168152602001908152602001600020541115611702576116be600360008373ffffffffffffffffffffffffffffffffffffffff1673ffffffffffffffffffffffffffffffffffffffff16815260200190815260200160002054610751565b600460008373ffffffffffffffffffffffffffffffffffffffff1673ffffffffffffffffffffffffffffffffffffffff168152602001908152602001600020819055505b6001600660008373ffffffffffffffffffffffffffffffffffffffff1673ffffffffffffffffffffffffffffffffffffffff16815260200190815260200160002060006101000a81548160ff0219169083151502179055506007819080600181540180825580915050600190039060005260206000200160009091909190916101000a81548173ffffffffffffffffffffffffffffffffffffffff021916908373ffffffffffffffffffffffffffffffffffffffff16021790555050565b6117c8611e08565b73ffffffffffffffffffffffffffffffffffffffff1660008054906101000a900473ffffffffffffffffffffffffffffffffffffffff1673ffffffffffffffffffffffffffffffffffffffff1614611855576040517f08c379a000000000000000000000000000000000000000000000000000000000815260040161184c90613e5d565b60405180910390fd5b600073ffffffffffffffffffffffffffffffffffffffff168173ffffffffffffffffffffffffffffffffffffffff1614156118c5576040517f08c379a00000000000000000000000000000000000000000000000000000000081526004016118bc90613d9d565b60405180910390fd5b8073ffffffffffffffffffffffffffffffffffffffff1660008054906101000a900473ffffffffffffffffffffffffffffffffffffffff1673ffffffffffffffffffffffffffffffffffffffff167f8be0079c531659141344cd1fd0a4f28419497f9722a3daafe3b4186f6b6457e060405160405180910390a3806000806101000a81548173ffffffffffffffffffffffffffffffffffffffff021916908373ffffffffffffffffffffffffffffffffffffffff16021790555050565b61198a611e08565b73ffffffffffffffffffffffffffffffffffffffff1660008054906101000a900473ffffffffffffffffffffffffffffffffffffffff1673ffffffffffffffffffffffffffffffffffffffff1614611a17576040517f08c379a0000000000000000000000000000000000000000000000000000000008152600401611a0e90613e5d565b60405180910390fd5b600660008273ffffffffffffffffffffffffffffffffffffffff1673ffffffffffffffffffffffffffffffffffffffff16815260200190815260200160002060009054906101000a900460ff16611aa3576040517f08c379a0000000000000000000000000000000000000000000000000000000008152600401611a9a90613ddd565b60405180910390fd5b60005b600780549050811015611d65578173ffffffffffffffffffffffffffffffffffffffff1660078281548110611b04577f4e487b7100000000000000000000000000000000000000000000000000000000600052603260045260246000fd5b9060005260206000200160009054906101000a900473ffffffffffffffffffffffffffffffffffffffff1673ffffffffffffffffffffffffffffffffffffffff161415611d525760076001600780549050611b5f9190614221565b81548110611b96577f4e487b7100000000000000000000000000000000000000000000000000000000600052603260045260246000fd5b9060005260206000200160009054906101000a900473ffffffffffffffffffffffffffffffffffffffff1660078281548110611bfb577f4e487b7100000000000000000000000000000000000000000000000000000000600052603260045260246000fd5b9060005260206000200160006101000a81548173ffffffffffffffffffffffffffffffffffffffff021916908373ffffffffffffffffffffffffffffffffffffffff1602179055506000600460008473ffffffffffffffffffffffffffffffffffffffff1673ffffffffffffffffffffffffffffffffffffffff168152602001908152602001600020819055506000600660008473ffffffffffffffffffffffffffffffffffffffff1673ffffffffffffffffffffffffffffffffffffffff16815260200190815260200160002060006101000a81548160ff0219169083151502179055506007805480611d18577f4e487b7100000000000000000000000000000000000000000000000000000000600052603160045260246000fd5b6001900381819060005260206000200160006101000a81549073ffffffffffffffffffffffffffffffffffffffff02191690559055611d65565b8080611d5d9061430f565b915050611aa6565b5050565b611d71611e08565b73ffffffffffffffffffffffffffffffffffffffff1660008054906101000a900473ffffffffffffffffffffffffffffffffffffffff1673ffffffffffffffffffffffffffffffffffffffff1614611dfe576040517f08c379a0000000000000000000000000000000000000000000000000000000008152600401611df590613e5d565b60405180910390fd5b8060108190555050565b600033905090565b600073ffffffffffffffffffffffffffffffffffffffff168373ffffffffffffffffffffffffffffffffffffffff161415611e80576040517f08c379a0000000000000000000000000000000000000000000000000000000008152600401611e7790613d5d565b60405180910390fd5b600073ffffffffffffffffffffffffffffffffffffffff168273ffffffffffffffffffffffffffffffffffffffff161415611ef0576040517f08c379a0000000000000000000000000000000000000000000000000000000008152600401611ee790613f3d565b60405180910390fd5b80600560008573ffffffffffffffffffffffffffffffffffffffff1673ffffffffffffffffffffffffffffffffffffffff16815260200190815260200160002060008473ffffffffffffffffffffffffffffffffffffffff1673ffffffffffffffffffffffffffffffffffffffff168152602001908152602001600020819055508173ffffffffffffffffffffffffffffffffffffffff168373ffffffffffffffffffffffffffffffffffffffff167f8c5be1e5ebec7d5bd14f71427d1e84f3dd0314c0f7b2291e5b200ac8c7c3b92583604051611fce9190613f7d565b60405180910390a3505050565b600073ffffffffffffffffffffffffffffffffffffffff168373ffffffffffffffffffffffffffffffffffffffff16141561204b576040517f08c379a000000000000000000000000000000000000000000000000000000000815260040161204290613d3d565b60405180910390fd5b600073ffffffffffffffffffffffffffffffffffffffff168273ffffffffffffffffffffffffffffffffffffffff1614156120bb576040517f08c379a00000000000000000000000000000000000000000000000000000000081526004016120b290613e9d565b60405180910390fd5b600081116120fe576040517f08c379a00000000000000000000000000000000000000000000000000000000081526004016120f590613e7d565b60405180910390fd5b612106610dc2565b73ffffffffffffffffffffffffffffffffffffffff168373ffffffffffffffffffffffffffffffffffffffff16141580156121745750612144610dc2565b73ffffffffffffffffffffffffffffffffffffffff168273ffffffffffffffffffffffffffffffffffffffff1614155b156121bf576012548111156121be576040517f08c379a00000000000000000000000000000000000000000000000000000000081526004016121b590613e1d565b60405180910390fd5b5b600660008473ffffffffffffffffffffffffffffffffffffffff1673ffffffffffffffffffffffffffffffffffffffff16815260200190815260200160002060009054906101000a900460ff1680156122625750600660008373ffffffffffffffffffffffffffffffffffffffff1673ffffffffffffffffffffffffffffffffffffffff16815260200190815260200160002060009054906101000a900460ff16155b15612277576122728383836128bb565b6124ae565b600660008473ffffffffffffffffffffffffffffffffffffffff1673ffffffffffffffffffffffffffffffffffffffff16815260200190815260200160002060009054906101000a900460ff1615801561231a5750600660008373ffffffffffffffffffffffffffffffffffffffff1673ffffffffffffffffffffffffffffffffffffffff16815260200190815260200160002060009054906101000a900460ff165b1561232f5761232a838383612b39565b6124ad565b600660008473ffffffffffffffffffffffffffffffffffffffff1673ffffffffffffffffffffffffffffffffffffffff16815260200190815260200160002060009054906101000a900460ff161580156123d35750600660008373ffffffffffffffffffffffffffffffffffffffff1673ffffffffffffffffffffffffffffffffffffffff16815260200190815260200160002060009054906101000a900460ff16155b156123e8576123e3838383612db7565b6124ac565b600660008473ffffffffffffffffffffffffffffffffffffffff1673ffffffffffffffffffffffffffffffffffffffff16815260200190815260200160002060009054906101000a900460ff16801561248a5750600660008373ffffffffffffffffffffffffffffffffffffffff1673ffffffffffffffffffffffffffffffffffffffff16815260200190815260200160002060009054906101000a900460ff165b1561249f5761249a838383612fa0565b6124ab565b6124aa838383612db7565b5b5b5b5b505050565b60008383111582906124fb576040517f08c379a00000000000000000000000000000000000000000000000000000000081526004016124f29190613d1b565b60405180910390fd5b506000838561250a9190614221565b9050809150509392505050565b60008060006125246132b3565b9150915061253b818361254290919063ffffffff16565b9250505090565b600061258483836040518060400160405280601a81526020017f536166654d6174683a206469766973696f6e206279207a65726f0000000000008152506135fe565b905092915050565b600080828461259b9190613fcf565b9050838110156125e0576040517f08c379a00000000000000000000000000000000000000000000000000000000081526004016125d790613dbd565b60405180910390fd5b8091505092915050565b60008060008060008060008060006126078a601054601154613661565b9250925092506000612617612517565b9050600080600061262a8e87878761371d565b9250925092508282828989899c509c509c509c509c509c505050505050505091939550919395565b600061269483836040518060400160405280601e81526020017f536166654d6174683a207375627472616374696f6e206f766572666c6f7700008152506124b3565b905092915050565b6000808314156126af5760009050612711565b600082846126bd91906141c7565b90508284826126cc9190614025565b1461270c576040517f08c379a000000000000000000000000000000000000000000000000000000000815260040161270390613e3d565b60405180910390fd5b809150505b92915050565b600073ffffffffffffffffffffffffffffffffffffffff168273ffffffffffffffffffffffffffffffffffffffff161415612787576040517f08c379a000000000000000000000000000000000000000000000000000000000815260040161277e90613ebd565b60405180910390fd5b6127f38160405180606001604052806022815260200161496660229139600360008673ffffffffffffffffffffffffffffffffffffffff1673ffffffffffffffffffffffffffffffffffffffff168152602001908152602001600020546124b39092919063ffffffff16565b600360008473ffffffffffffffffffffffffffffffffffffffff1673ffffffffffffffffffffffffffffffffffffffff1681526020019081526020016000208190555061284b81600c5461265290919063ffffffff16565b600c81905550600073ffffffffffffffffffffffffffffffffffffffff168273ffffffffffffffffffffffffffffffffffffffff167fddf252ad1be2c89b69c2b068fc378daa952ba7f163c4a11628f55a4df523b3ef836040516128af9190613f7d565b60405180910390a35050565b60006128c5612517565b90506000806000806000806128d9886125ea565b95509550955095509550955060006128fa888361269c90919063ffffffff16565b905061294e89600460008e73ffffffffffffffffffffffffffffffffffffffff1673ffffffffffffffffffffffffffffffffffffffff1681526020019081526020016000205461265290919063ffffffff16565b600460008d73ffffffffffffffffffffffffffffffffffffffff1673ffffffffffffffffffffffffffffffffffffffff168152602001908152602001600020819055506129e387600360008e73ffffffffffffffffffffffffffffffffffffffff1673ffffffffffffffffffffffffffffffffffffffff1681526020019081526020016000205461265290919063ffffffff16565b600360008d73ffffffffffffffffffffffffffffffffffffffff1673ffffffffffffffffffffffffffffffffffffffff16815260200190815260200160002081905550612a7886600360008d73ffffffffffffffffffffffffffffffffffffffff1673ffffffffffffffffffffffffffffffffffffffff1681526020019081526020016000205461258c90919063ffffffff16565b600360008c73ffffffffffffffffffffffffffffffffffffffff1673ffffffffffffffffffffffffffffffffffffffff16815260200190815260200160002081905550612ac7858285856137a6565b8973ffffffffffffffffffffffffffffffffffffffff168b73ffffffffffffffffffffffffffffffffffffffff167fddf252ad1be2c89b69c2b068fc378daa952ba7f163c4a11628f55a4df523b3ef86604051612b249190613f7d565b60405180910390a35050505050505050505050565b6000612b43612517565b9050600080600080600080612b57886125ea565b9550955095509550955095506000612b78888361269c90919063ffffffff16565b9050612bcc87600360008e73ffffffffffffffffffffffffffffffffffffffff1673ffffffffffffffffffffffffffffffffffffffff1681526020019081526020016000205461265290919063ffffffff16565b600360008d73ffffffffffffffffffffffffffffffffffffffff1673ffffffffffffffffffffffffffffffffffffffff16815260200190815260200160002081905550612c6184600460008d73ffffffffffffffffffffffffffffffffffffffff1673ffffffffffffffffffffffffffffffffffffffff1681526020019081526020016000205461258c90919063ffffffff16565b600460008c73ffffffffffffffffffffffffffffffffffffffff1673ffffffffffffffffffffffffffffffffffffffff16815260200190815260200160002081905550612cf686600360008d73ffffffffffffffffffffffffffffffffffffffff1673ffffffffffffffffffffffffffffffffffffffff1681526020019081526020016000205461258c90919063ffffffff16565b600360008c73ffffffffffffffffffffffffffffffffffffffff1673ffffffffffffffffffffffffffffffffffffffff16815260200190815260200160002081905550612d45858285856137a6565b8973ffffffffffffffffffffffffffffffffffffffff168b73ffffffffffffffffffffffffffffffffffffffff167fddf252ad1be2c89b69c2b068fc378daa952ba7f163c4a11628f55a4df523b3ef86604051612da29190613f7d565b60405180910390a35050505050505050505050565b6000612dc1612517565b9050600080600080600080612dd5886125ea565b9550955095509550955095506000612df6888361269c90919063ffffffff16565b9050612e4a87600360008e73ffffffffffffffffffffffffffffffffffffffff1673ffffffffffffffffffffffffffffffffffffffff1681526020019081526020016000205461265290919063ffffffff16565b600360008d73ffffffffffffffffffffffffffffffffffffffff1673ffffffffffffffffffffffffffffffffffffffff16815260200190815260200160002081905550612edf86600360008d73ffffffffffffffffffffffffffffffffffffffff1673ffffffffffffffffffffffffffffffffffffffff1681526020019081526020016000205461258c90919063ffffffff16565b600360008c73ffffffffffffffffffffffffffffffffffffffff1673ffffffffffffffffffffffffffffffffffffffff16815260200190815260200160002081905550612f2e858285856137a6565b8973ffffffffffffffffffffffffffffffffffffffff168b73ffffffffffffffffffffffffffffffffffffffff167fddf252ad1be2c89b69c2b068fc378daa952ba7f163c4a11628f55a4df523b3ef86604051612f8b9190613f7d565b60405180910390a35050505050505050505050565b6000612faa612517565b9050600080600080600080612fbe886125ea565b9550955095509550955095506000612fdf888361269c90919063ffffffff16565b905061303389600460008e73ffffffffffffffffffffffffffffffffffffffff1673ffffffffffffffffffffffffffffffffffffffff1681526020019081526020016000205461265290919063ffffffff16565b600460008d73ffffffffffffffffffffffffffffffffffffffff1673ffffffffffffffffffffffffffffffffffffffff168152602001908152602001600020819055506130c887600360008e73ffffffffffffffffffffffffffffffffffffffff1673ffffffffffffffffffffffffffffffffffffffff1681526020019081526020016000205461265290919063ffffffff16565b600360008d73ffffffffffffffffffffffffffffffffffffffff1673ffffffffffffffffffffffffffffffffffffffff1681526020019081526020016000208190555061315d84600460008d73ffffffffffffffffffffffffffffffffffffffff1673ffffffffffffffffffffffffffffffffffffffff1681526020019081526020016000205461258c90919063ffffffff16565b600460008c73ffffffffffffffffffffffffffffffffffffffff1673ffffffffffffffffffffffffffffffffffffffff168152602001908152602001600020819055506131f286600360008d73ffffffffffffffffffffffffffffffffffffffff1673ffffffffffffffffffffffffffffffffffffffff1681526020019081526020016000205461258c90919063ffffffff16565b600360008c73ffffffffffffffffffffffffffffffffffffffff1673ffffffffffffffffffffffffffffffffffffffff16815260200190815260200160002081905550613241858285856137a6565b8973ffffffffffffffffffffffffffffffffffffffff168b73ffffffffffffffffffffffffffffffffffffffff167fddf252ad1be2c89b69c2b068fc378daa952ba7f163c4a11628f55a4df523b3ef8660405161329e9190613f7d565b60405180910390a35050505050505050505050565b6000806000600d5490506000600c54905060005b6007805490508110156135c157826003600060078481548110613313577f4e487b7100000000000000000000000000000000000000000000000000000000600052603260045260246000fd5b9060005260206000200160009054906101000a900473ffffffffffffffffffffffffffffffffffffffff1673ffffffffffffffffffffffffffffffffffffffff1673ffffffffffffffffffffffffffffffffffffffff16815260200190815260200160002054118061342757508160046000600784815481106133bf577f4e487b7100000000000000000000000000000000000000000000000000000000600052603260045260246000fd5b9060005260206000200160009054906101000a900473ffffffffffffffffffffffffffffffffffffffff1673ffffffffffffffffffffffffffffffffffffffff1673ffffffffffffffffffffffffffffffffffffffff16815260200190815260200160002054115b1561343e57600d54600c54945094505050506135fa565b6134f4600360006007848154811061347f577f4e487b7100000000000000000000000000000000000000000000000000000000600052603260045260246000fd5b9060005260206000200160009054906101000a900473ffffffffffffffffffffffffffffffffffffffff1673ffffffffffffffffffffffffffffffffffffffff1673ffffffffffffffffffffffffffffffffffffffff168152602001908152602001600020548461265290919063ffffffff16565b92506135ac6004600060078481548110613537577f4e487b7100000000000000000000000000000000000000000000000000000000600052603260045260246000fd5b9060005260206000200160009054906101000a900473ffffffffffffffffffffffffffffffffffffffff1673ffffffffffffffffffffffffffffffffffffffff1673ffffffffffffffffffffffffffffffffffffffff168152602001908152602001600020548361265290919063ffffffff16565b915080806135b99061430f565b9150506132c7565b506135d9600c54600d5461254290919063ffffffff16565b8210156135f157600d54600c549350935050506135fa565b81819350935050505b9091565b60008083118290613645576040517f08c379a000000000000000000000000000000000000000000000000000000000815260040161363c9190613d1b565b60405180910390fd5b50600083856136549190614025565b9050809150509392505050565b6000806000806136a0606461369260646136848a8c61269c90919063ffffffff16565b61254290919063ffffffff16565b61254290919063ffffffff16565b905060006136dd60646136cf60646136c18a8d61269c90919063ffffffff16565b61254290919063ffffffff16565b61254290919063ffffffff16565b90506000613706826136f8858c61265290919063ffffffff16565b61265290919063ffffffff16565b905080838395509550955050505093509350939050565b600080600080613736858961269c90919063ffffffff16565b9050600061374d868961269c90919063ffffffff16565b90506000613764878961269c90919063ffffffff16565b9050600061378d8261377f858761265290919063ffffffff16565b61265290919063ffffffff16565b9050838184965096509650505050509450945094915050565b6137cd836137bf86600d5461265290919063ffffffff16565b61265290919063ffffffff16565b600d819055506137e882600e5461258c90919063ffffffff16565b600e8190555061380381600f5461258c90919063ffffffff16565b600f8190555061381e81600c5461265290919063ffffffff16565b600c8190555050505050565b600081359050613839816148d3565b92915050565b60008135905061384e816148ea565b92915050565b60008135905061386381614901565b92915050565b60006020828403121561387b57600080fd5b60006138898482850161382a565b91505092915050565b600080604083850312156138a557600080fd5b60006138b38582860161382a565b92505060206138c48582860161382a565b9150509250929050565b6000806000606084860312156138e357600080fd5b60006138f18682870161382a565b93505060206139028682870161382a565b925050604061391386828701613854565b9150509250925092565b6000806040838503121561393057600080fd5b600061393e8582860161382a565b925050602061394f85828601613854565b9150509250929050565b60006020828403121561396b57600080fd5b600061397984828501613854565b91505092915050565b6000806040838503121561399557600080fd5b60006139a385828601613854565b92505060206139b48582860161383f565b9150509250929050565b600080604083850312156139d157600080fd5b60006139df85828601613854565b92505060206139f085828601613854565b9150509250929050565b613a0381614255565b82525050565b613a1281614267565b82525050565b6000613a2382613fb3565b613a2d8185613fbe565b9350613a3d8185602086016142aa565b613a46816143e5565b840191505092915050565b6000613a5e602583613fbe565b9150613a6982614403565b604082019050919050565b6000613a81602483613fbe565b9150613a8c82614452565b604082019050919050565b6000613aa4602a83613fbe565b9150613aaf826144a1565b604082019050919050565b6000613ac7602683613fbe565b9150613ad2826144f0565b604082019050919050565b6000613aea601b83613fbe565b9150613af58261453f565b602082019050919050565b6000613b0d601b83613fbe565b9150613b1882614568565b602082019050919050565b6000613b30601f83613fbe565b9150613b3b82614591565b602082019050919050565b6000613b53602883613fbe565b9150613b5e826145ba565b604082019050919050565b6000613b76602183613fbe565b9150613b8182614609565b604082019050919050565b6000613b99602083613fbe565b9150613ba482614658565b602082019050919050565b6000613bbc602983613fbe565b9150613bc782614681565b604082019050919050565b6000613bdf602383613fbe565b9150613bea826146d0565b604082019050919050565b6000613c02602183613fbe565b9150613c0d8261471f565b604082019050919050565b6000613c25601f83613fbe565b9150613c308261476e565b602082019050919050565b6000613c48602283613fbe565b9150613c5382614797565b604082019050919050565b6000613c6b602c83613fbe565b9150613c76826147e6565b604082019050919050565b6000613c8e602283613fbe565b9150613c9982614835565b604082019050919050565b6000613cb1602383613fbe565b9150613cbc82614884565b604082019050919050565b613cd081614293565b82525050565b613cdf8161429d565b82525050565b6000602082019050613cfa60008301846139fa565b92915050565b6000602082019050613d156000830184613a09565b92915050565b60006020820190508181036000830152613d358184613a18565b905092915050565b60006020820190508181036000830152613d5681613a51565b9050919050565b60006020820190508181036000830152613d7681613a74565b9050919050565b60006020820190508181036000830152613d9681613a97565b9050919050565b60006020820190508181036000830152613db681613aba565b9050919050565b60006020820190508181036000830152613dd681613add565b9050919050565b60006020820190508181036000830152613df681613b00565b9050919050565b60006020820190508181036000830152613e1681613b23565b9050919050565b60006020820190508181036000830152613e3681613b46565b9050919050565b60006020820190508181036000830152613e5681613b69565b9050919050565b60006020820190508181036000830152613e7681613b8c565b9050919050565b60006020820190508181036000830152613e9681613baf565b9050919050565b60006020820190508181036000830152613eb681613bd2565b9050919050565b60006020820190508181036000830152613ed681613bf5565b9050919050565b60006020820190508181036000830152613ef681613c18565b9050919050565b60006020820190508181036000830152613f1681613c3b565b9050919050565b60006020820190508181036000830152613f3681613c5e565b9050919050565b60006020820190508181036000830152613f5681613c81565b9050919050565b60006020820190508181036000830152613f7681613ca4565b9050919050565b6000602082019050613f926000830184613cc7565b92915050565b6000602082019050613fad6000830184613cd6565b92915050565b600081519050919050565b600082825260208201905092915050565b6000613fda82614293565b9150613fe583614293565b9250827fffffffffffffffffffffffffffffffffffffffffffffffffffffffffffffffff0382111561401a57614019614358565b5b828201905092915050565b600061403082614293565b915061403b83614293565b92508261404b5761404a614387565b5b828204905092915050565b6000808291508390505b60018511156140a05780860481111561407c5761407b614358565b5b600185161561408b5780820291505b8081029050614099856143f6565b9450614060565b94509492505050565b60006140b482614293565b91506140bf83614293565b92506140ec7fffffffffffffffffffffffffffffffffffffffffffffffffffffffffffffffff84846140f4565b905092915050565b60008261410457600190506141c0565b8161411257600090506141c0565b8160018114614128576002811461413257614161565b60019150506141c0565b60ff84111561414457614143614358565b5b8360020a91508482111561415b5761415a614358565b5b506141c0565b5060208310610133831016604e8410600b84101617156141965782820a90508381111561419157614190614358565b5b6141c0565b6141a38484846001614056565b925090508184048111156141ba576141b9614358565b5b81810290505b9392505050565b60006141d282614293565b91506141dd83614293565b9250817fffffffffffffffffffffffffffffffffffffffffffffffffffffffffffffffff048311821515161561421657614215614358565b5b828202905092915050565b600061422c82614293565b915061423783614293565b92508282101561424a57614249614358565b5b828203905092915050565b600061426082614273565b9050919050565b60008115159050919050565b600073ffffffffffffffffffffffffffffffffffffffff82169050919050565b6000819050919050565b600060ff82169050919050565b60005b838110156142c85780820151818401526020810190506142ad565b838111156142d7576000848401525b50505050565b600060028204905060018216806142f557607f821691505b60208210811415614309576143086143b6565b5b50919050565b600061431a82614293565b91507fffffffffffffffffffffffffffffffffffffffffffffffffffffffffffffffff82141561434d5761434c614358565b5b600182019050919050565b7f4e487b7100000000000000000000000000000000000000000000000000000000600052601160045260246000fd5b7f4e487b7100000000000000000000000000000000000000000000000000000000600052601260045260246000fd5b7f4e487b7100000000000000000000000000000000000000000000000000000000600052602260045260246000fd5b6000601f19601f8301169050919050565b60008160011c9050919050565b7f42455032303a207472616e736665722066726f6d20746865207a65726f20616460008201527f6472657373000000000000000000000000000000000000000000000000000000602082015250565b7f42455032303a20617070726f76652066726f6d20746865207a65726f2061646460008201527f7265737300000000000000000000000000000000000000000000000000000000602082015250565b7f416d6f756e74206d757374206265206c657373207468616e20746f74616c207260008201527f65666c656374696f6e7300000000000000000000000000000000000000000000602082015250565b7f4f776e61626c653a206e6577206f776e657220697320746865207a65726f206160008201527f6464726573730000000000000000000000000000000000000000000000000000602082015250565b7f536166654d6174683a206164646974696f6e206f766572666c6f770000000000600082015250565b7f4163636f756e7420697320616c7265616479206578636c756465640000000000600082015250565b7f416d6f756e74206d757374206265206c657373207468616e20737570706c7900600082015250565b7f5472616e7366657220616d6f756e74206578636565647320746865206d61785460008201527f78416d6f756e742e000000000000000000000000000000000000000000000000602082015250565b7f536166654d6174683a206d756c7469706c69636174696f6e206f766572666c6f60008201527f7700000000000000000000000000000000000000000000000000000000000000602082015250565b7f4f776e61626c653a2063616c6c6572206973206e6f7420746865206f776e6572600082015250565b7f5472616e7366657220616d6f756e74206d75737420626520677265617465722060008201527f7468616e207a65726f0000000000000000000000000000000000000000000000602082015250565b7f42455032303a207472616e7366657220746f20746865207a65726f206164647260008201527f6573730000000000000000000000000000000000000000000000000000000000602082015250565b7f42455032303a206275726e2066726f6d20746865207a65726f2061646472657360008201527f7300000000000000000000000000000000000000000000000000000000000000602082015250565b7f436f6e7472616374206973206c6f636b656420756e74696c2037206461797300600082015250565b7f57652063616e206e6f74206578636c75646520556e697377617020726f75746560008201527f722e000000000000000000000000000000000000000000000000000000000000602082015250565b7f4578636c75646564206164647265737365732063616e6e6f742063616c6c207460008201527f6869732066756e6374696f6e0000000000000000000000000000000000000000602082015250565b7f42455032303a20617070726f766520746f20746865207a65726f20616464726560008201527f7373000000000000000000000000000000000000000000000000000000000000602082015250565b7f596f7520646f6e27742068617665207065726d697373696f6e20746f20756e6c60008201527f6f636b0000000000000000000000000000000000000000000000000000000000602082015250565b6148dc81614255565b81146148e757600080fd5b50565b6148f381614267565b81146148fe57600080fd5b50565b61490a81614293565b811461491557600080fd5b5056fe42455032303a207472616e7366657220616d6f756e74206578636565647320616c6c6f77616e636542455032303a2064656372656173656420616c6c6f77616e63652062656c6f77207a65726f42455032303a206275726e20616d6f756e7420657863656564732062616c616e6365a2646970667358221220b86879eedb2f7524cc488dada9ee0ec49d2f64fb0ef6761786f1f96c388657fb64736f6c63430008040033",
  "immutableReferences": {},
  "source": "\r\n/**\r\n  \r\n   #BEE\r\n   \r\n   #LIQ+#RFI+#SHIB+#DOGE = #BEE\r\n   # features:\r\n   6% fee auto burned\r\n   6% fee auto distribute to all holders\r\n   \r\n */\r\n \r\n \r\n // SPDX-License-Identifier: MIT\r\npragma solidity ^0.8.3;\r\n\r\nabstract contract Context {\r\n    function _msgSender() internal view virtual returns (address payable) {\r\n        return payable(msg.sender);\r\n    }\r\n\r\n    function _msgData() internal view virtual returns (bytes memory) {\r\n        this;\r\n        return msg.data;\r\n    }\r\n}\r\n\r\nlibrary SafeMath {\r\n    function add(uint256 a, uint256 b) internal pure returns (uint256) {\r\n        uint256 c = a + b;\r\n        require(c >= a, \"SafeMath: addition overflow\");\r\n        return c;\r\n    }\r\n\r\n    function sub(uint256 a, uint256 b) internal pure returns (uint256) {\r\n        return sub(a, b, \"SafeMath: subtraction overflow\");\r\n    }\r\n\r\n    function sub(uint256 a, uint256 b, string memory errorMessage) internal pure returns (uint256) {\r\n        require(b <= a, errorMessage);\r\n        uint256 c = a - b;\r\n        return c;\r\n    }\r\n\r\n    function mul(uint256 a, uint256 b) internal pure returns (uint256) {\r\n        if (a == 0) {\r\n            return 0;\r\n        }\r\n        uint256 c = a * b;\r\n        require(c / a == b, \"SafeMath: multiplication overflow\");\r\n\r\n        return c;\r\n    }\r\n\r\n    function div(uint256 a, uint256 b) internal pure returns (uint256) {\r\n        return div(a, b, \"SafeMath: division by zero\");\r\n    }\r\n\r\n    function div(uint256 a, uint256 b, string memory errorMessage) internal pure returns (uint256) {\r\n        require(b > 0, errorMessage);\r\n        uint256 c = a / b;\r\n        return c;\r\n    }\r\n\r\n    function mod(uint256 a, uint256 b) internal pure returns (uint256) {\r\n        return mod(a, b, \"SafeMath: modulo by zero\");\r\n    }\r\n\r\n    function mod(uint256 a, uint256 b, string memory errorMessage) internal pure returns (uint256) {\r\n        require(b != 0, errorMessage);\r\n        return a % b;\r\n    }\r\n}\r\n\r\ninterface IBEP20 {\r\n    function totalSupply() external view returns (uint256);\r\n    function balanceOf(address account) external view returns (uint256);\r\n    function transfer(address recipient, uint256 amount) external returns (bool);\r\n    function allowance(address owner, address spender) external view returns (uint256);\r\n    function approve(address spender, uint256 amount) external returns (bool);\r\n    function transferFrom(address sender, address recipient, uint256 amount) external returns (bool);\r\n    event Transfer(address indexed from, address indexed to, uint256 value);\r\n    event Approval(address indexed owner, address indexed spender, uint256 value);\r\n}\r\n\r\nlibrary Address {\r\n    function isContract(address account) internal view returns (bool) {\r\n        uint256 size;\r\n        assembly {\r\n            size := extcodesize(account)\r\n        }\r\n        return size > 0;\r\n    }\r\n\r\n    function sendValue(address payable recipient, uint256 amount) internal {\r\n        require(address(this).balance >= amount, \"Address: insufficient balance\");\r\n        (bool success, ) = recipient.call{value: amount}(\"\");\r\n        require(success, \"Address: unable to send value, recipient may have reverted\");\r\n    }\r\n\r\n    function functionCall(address target, bytes memory data) internal returns (bytes memory) {\r\n        return functionCall(target, data, \"Address: low-level call failed\");\r\n    }\r\n\r\n    function functionCall(address target, bytes memory data, string memory errorMessage) internal returns (bytes memory) {\r\n        return _functionCallWithValue(target, data, 0, errorMessage);\r\n    }\r\n\r\n    function functionCallWithValue(address target, bytes memory data, uint256 value) internal returns (bytes memory) {\r\n        return functionCallWithValue(target, data, value, \"Address: low-level call with value failed\");\r\n    }\r\n\r\n    function functionCallWithValue(address target, bytes memory data, uint256 value, string memory errorMessage) internal returns (bytes memory) {\r\n        require(address(this).balance >= value, \"Address: insufficient balance for call\");\r\n        return _functionCallWithValue(target, data, value, errorMessage);\r\n    }\r\n\r\n    function _functionCallWithValue(address target, bytes memory data, uint256 weiValue, string memory errorMessage) private returns (bytes memory) {\r\n        require(isContract(target), \"Address: call to non-contract\");\r\n        (bool success, bytes memory returndata) = target.call{value: weiValue}(data);\r\n        if (success) {\r\n            return returndata;\r\n        } else {\r\n            if (returndata.length > 0) {\r\n                assembly {\r\n                    let returndata_size := mload(returndata)\r\n                    revert(add(32, returndata), returndata_size)\r\n                }\r\n            } else {\r\n                revert(errorMessage);\r\n            }\r\n        }\r\n    }\r\n}\r\n\r\ncontract Ownable is Context {\r\n    address private _owner;\r\n    address private _previousOwner;\r\n    uint256 private _lockTime;\r\n    event OwnershipTransferred(address indexed previousOwner, address indexed newOwner);\r\n    constructor(){\r\n        address msgSender = _msgSender();\r\n        _owner = msgSender;\r\n        emit OwnershipTransferred(address(0), msgSender);\r\n    }\r\n\r\n    function owner() public view returns (address) {\r\n        return _owner;\r\n    }\r\n\r\n    modifier onlyOwner() {\r\n        require(_owner == _msgSender(), \"Ownable: caller is not the owner\");\r\n        _;\r\n    }\r\n\r\n    function renounceOwnership() public virtual onlyOwner {\r\n        emit OwnershipTransferred(_owner, address(0));\r\n        _owner = address(0);\r\n    }\r\n\r\n    function transferOwnership(address newOwner) public virtual onlyOwner {\r\n        require(newOwner != address(0), \"Ownable: new owner is the zero address\");\r\n        emit OwnershipTransferred(_owner, newOwner);\r\n        _owner = newOwner;\r\n    }\r\n\r\n    function geUnlockTime() public view returns (uint256) {\r\n        return _lockTime;\r\n    }\r\n\r\n    function lock(uint256 time) public virtual onlyOwner {\r\n        _previousOwner = _owner;\r\n        _owner = address(0);\r\n        _lockTime = block.timestamp + time;\r\n        emit OwnershipTransferred(_owner, address(0));\r\n    }\r\n\r\n    function unlock() public virtual {\r\n        require(_previousOwner == msg.sender, \"You don't have permission to unlock\");\r\n        require(block.timestamp > _lockTime , \"Contract is locked until 7 days\");\r\n        emit OwnershipTransferred(_owner, _previousOwner);\r\n        _owner = _previousOwner;\r\n    }\r\n}\r\n\r\ncontract Disastergirltoken is Context, IBEP20, Ownable {\r\n    using SafeMath for uint256;\r\n    using Address for address;\r\n\r\n    mapping (address => uint256) private _rOwned;\r\n    mapping (address => uint256) private _tOwned;\r\n    mapping (address => mapping (address => uint256)) private _allowances;\r\n\r\n    mapping (address => bool) private _isExcluded;\r\n    address[] private _excluded;\r\n\r\n    string  private _NAME = 'Disaster Girl Token';\r\n    string  private _SYMBOL = 'DISG';\r\n    uint8   private _DECIMALS = 9;\r\n\r\n    uint256 private constant _MAX = ~uint256(0);\r\n    uint256 private _DECIMALFACTOR = 10 ** uint256(_DECIMALS);\r\n    uint256 private constant _GRANULARITY = 100;\r\n\r\n    uint256 private _tTotal = 1000000000001 * _DECIMALFACTOR;\r\n    uint256 private _rTotal = (_MAX - (_MAX % _tTotal));\r\n\r\n    uint256 private _tFeeTotal;\r\n    uint256 private _tBurnTotal;\r\n\r\n    uint256 private _TAX_FEE = 600;\r\n    uint256 private _BURN_FEE = 600;\r\n    uint256 private _MAX_TX_SIZE = 1000000000001 * _DECIMALFACTOR;\r\n\r\n    constructor () {\r\n        _rOwned[_msgSender()] = _rTotal;\r\n        emit Transfer(address(0), _msgSender(), _tTotal);\r\n    }\r\n\r\n    function name() public view returns (string memory) {\r\n        return _NAME;\r\n    }\r\n\r\n    function symbol() public view returns (string memory) {\r\n        return _SYMBOL;\r\n    }\r\n\r\n    function decimals() public view returns (uint8) {\r\n        return _DECIMALS;\r\n    }\r\n\r\n    function totalSupply() public view override returns (uint256) {\r\n        return _tTotal;\r\n    }\r\n\r\n    function balanceOf(address account) public view override returns (uint256) {\r\n        if (_isExcluded[account]) return _tOwned[account];\r\n        return tokenFromReflection(_rOwned[account]);\r\n    }\r\n\r\n    function transfer(address recipient, uint256 amount) public override returns (bool) {\r\n        _transfer(_msgSender(), recipient, amount);\r\n        return true;\r\n    }\r\n\r\n    function allowance(address owner, address spender) public view override returns (uint256) {\r\n        return _allowances[owner][spender];\r\n    }\r\n\r\n    function approve(address spender, uint256 amount) public override returns (bool) {\r\n        _approve(_msgSender(), spender, amount);\r\n        return true;\r\n    }\r\n\r\n    function transferFrom(address sender, address recipient, uint256 amount) public override returns (bool) {\r\n        _transfer(sender, recipient, amount);\r\n        _approve(sender, _msgSender(), _allowances[sender][_msgSender()].sub(amount, \"BEP20: transfer amount exceeds allowance\"));\r\n        return true;\r\n    }\r\n\r\n    function increaseAllowance(address spender, uint256 addedValue) public virtual returns (bool) {\r\n        _approve(_msgSender(), spender, _allowances[_msgSender()][spender].add(addedValue));\r\n        return true;\r\n    }\r\n\r\n    function decreaseAllowance(address spender, uint256 subtractedValue) public virtual returns (bool) {\r\n        _approve(_msgSender(), spender, _allowances[_msgSender()][spender].sub(subtractedValue, \"BEP20: decreased allowance below zero\"));\r\n        return true;\r\n    }\r\n\r\n    function isExcluded(address account) public view returns (bool) {\r\n        return _isExcluded[account];\r\n    }\r\n\r\n    function totalFees() public view returns (uint256) {\r\n        return _tFeeTotal;\r\n    }\r\n\r\n    function totalBurn() public view returns (uint256) {\r\n        return _tBurnTotal;\r\n    }\r\n\r\n    function deliver(uint256 tAmount) public {\r\n        address sender = _msgSender();\r\n        require(!_isExcluded[sender], \"Excluded addresses cannot call this function\");\r\n        (uint256 rAmount,,,,,) = _getValues(tAmount);\r\n        _rOwned[sender] = _rOwned[sender].sub(rAmount);\r\n        _rTotal = _rTotal.sub(rAmount);\r\n        _tFeeTotal = _tFeeTotal.add(tAmount);\r\n    }\r\n\r\n    function reflectionFromToken(uint256 tAmount, bool deductTransferFee) public view returns(uint256) {\r\n        require(tAmount <= _tTotal, \"Amount must be less than supply\");\r\n        if (!deductTransferFee) {\r\n            (uint256 rAmount,,,,,) = _getValues(tAmount);\r\n            return rAmount;\r\n        } else {\r\n            (,uint256 rTransferAmount,,,,) = _getValues(tAmount);\r\n            return rTransferAmount;\r\n        }\r\n    }\r\n\r\n    function tokenFromReflection(uint256 rAmount) public view returns(uint256) {\r\n        require(rAmount <= _rTotal, \"Amount must be less than total reflections\");\r\n        uint256 currentRate =  _getRate();\r\n        return rAmount.div(currentRate);\r\n    }\r\n\r\n    function excludeAccount(address account) external onlyOwner() {\r\n        require(account != 0x7a250d5630B4cF539739dF2C5dAcb4c659F2488D, 'We can not exclude Uniswap router.');\r\n        require(!_isExcluded[account], \"Account is already excluded\");\r\n        if(_rOwned[account] > 0) {\r\n            _tOwned[account] = tokenFromReflection(_rOwned[account]);\r\n        }\r\n        _isExcluded[account] = true;\r\n        _excluded.push(account);\r\n    }\r\n\r\n    function includeAccount(address account) external onlyOwner() {\r\n        require(_isExcluded[account], \"Account is already excluded\");\r\n        for (uint256 i = 0; i < _excluded.length; i++) {\r\n            if (_excluded[i] == account) {\r\n                _excluded[i] = _excluded[_excluded.length - 1];\r\n                _tOwned[account] = 0;\r\n                _isExcluded[account] = false;\r\n                _excluded.pop();\r\n                break;\r\n            }\r\n        }\r\n    }\r\n\r\n    function _approve(address owner, address spender, uint256 amount) private {\r\n        require(owner != address(0), \"BEP20: approve from the zero address\");\r\n        require(spender != address(0), \"BEP20: approve to the zero address\");\r\n\r\n        _allowances[owner][spender] = amount;\r\n        emit Approval(owner, spender, amount);\r\n    }\r\n\r\n    function _transfer(address sender, address recipient, uint256 amount) private {\r\n        require(sender != address(0), \"BEP20: transfer from the zero address\");\r\n        require(recipient != address(0), \"BEP20: transfer to the zero address\");\r\n        require(amount > 0, \"Transfer amount must be greater than zero\");\r\n\r\n        if(sender != owner() && recipient != owner())\r\n            require(amount <= _MAX_TX_SIZE, \"Transfer amount exceeds the maxTxAmount.\");\r\n\r\n        if (_isExcluded[sender] && !_isExcluded[recipient]) {\r\n            _transferFromExcluded(sender, recipient, amount);\r\n        } else if (!_isExcluded[sender] && _isExcluded[recipient]) {\r\n            _transferToExcluded(sender, recipient, amount);\r\n        } else if (!_isExcluded[sender] && !_isExcluded[recipient]) {\r\n            _transferStandard(sender, recipient, amount);\r\n        } else if (_isExcluded[sender] && _isExcluded[recipient]) {\r\n            _transferBothExcluded(sender, recipient, amount);\r\n        } else {\r\n            _transferStandard(sender, recipient, amount);\r\n        }\r\n    }\r\n\r\n    function _transferStandard(address sender, address recipient, uint256 tAmount) private {\r\n        uint256 currentRate =  _getRate();\r\n        (uint256 rAmount, uint256 rTransferAmount, uint256 rFee, uint256 tTransferAmount, uint256 tFee, uint256 tBurn) = _getValues(tAmount);\r\n        uint256 rBurn =  tBurn.mul(currentRate);\r\n        _rOwned[sender] = _rOwned[sender].sub(rAmount);\r\n        _rOwned[recipient] = _rOwned[recipient].add(rTransferAmount);\r\n        _reflectFee(rFee, rBurn, tFee, tBurn);\r\n        emit Transfer(sender, recipient, tTransferAmount);\r\n    }\r\n\r\n    function _transferToExcluded(address sender, address recipient, uint256 tAmount) private {\r\n        uint256 currentRate =  _getRate();\r\n        (uint256 rAmount, uint256 rTransferAmount, uint256 rFee, uint256 tTransferAmount, uint256 tFee, uint256 tBurn) = _getValues(tAmount);\r\n        uint256 rBurn =  tBurn.mul(currentRate);\r\n        _rOwned[sender] = _rOwned[sender].sub(rAmount);\r\n        _tOwned[recipient] = _tOwned[recipient].add(tTransferAmount);\r\n        _rOwned[recipient] = _rOwned[recipient].add(rTransferAmount);\r\n        _reflectFee(rFee, rBurn, tFee, tBurn);\r\n        emit Transfer(sender, recipient, tTransferAmount);\r\n    }\r\n\r\n    function _transferFromExcluded(address sender, address recipient, uint256 tAmount) private {\r\n        uint256 currentRate =  _getRate();\r\n        (uint256 rAmount, uint256 rTransferAmount, uint256 rFee, uint256 tTransferAmount, uint256 tFee, uint256 tBurn) = _getValues(tAmount);\r\n        uint256 rBurn =  tBurn.mul(currentRate);\r\n        _tOwned[sender] = _tOwned[sender].sub(tAmount);\r\n        _rOwned[sender] = _rOwned[sender].sub(rAmount);\r\n        _rOwned[recipient] = _rOwned[recipient].add(rTransferAmount);\r\n        _reflectFee(rFee, rBurn, tFee, tBurn);\r\n        emit Transfer(sender, recipient, tTransferAmount);\r\n    }\r\n\r\n    function _transferBothExcluded(address sender, address recipient, uint256 tAmount) private {\r\n        uint256 currentRate =  _getRate();\r\n        (uint256 rAmount, uint256 rTransferAmount, uint256 rFee, uint256 tTransferAmount, uint256 tFee, uint256 tBurn) = _getValues(tAmount);\r\n        uint256 rBurn =  tBurn.mul(currentRate);\r\n        _tOwned[sender] = _tOwned[sender].sub(tAmount);\r\n        _rOwned[sender] = _rOwned[sender].sub(rAmount);\r\n        _tOwned[recipient] = _tOwned[recipient].add(tTransferAmount);\r\n        _rOwned[recipient] = _rOwned[recipient].add(rTransferAmount);\r\n        _reflectFee(rFee, rBurn, tFee, tBurn);\r\n        emit Transfer(sender, recipient, tTransferAmount);\r\n    }\r\n\r\n    function _reflectFee(uint256 rFee, uint256 rBurn, uint256 tFee, uint256 tBurn) private {\r\n        _rTotal = _rTotal.sub(rFee).sub(rBurn);\r\n        _tFeeTotal = _tFeeTotal.add(tFee);\r\n        _tBurnTotal = _tBurnTotal.add(tBurn);\r\n        _tTotal = _tTotal.sub(tBurn);\r\n    }\r\n\r\n    function setMaxTxPercent(uint256 maxTxPercent, uint256 maxTxDecimals) external onlyOwner() {\r\n        _MAX_TX_SIZE = _tTotal.mul(maxTxPercent).div(\r\n            10**(uint256(maxTxDecimals) + 2)\r\n        );\r\n    }\r\n\r\n    function _getValues(uint256 tAmount) private view returns (uint256, uint256, uint256, uint256, uint256, uint256) {\r\n        (uint256 tTransferAmount, uint256 tFee, uint256 tBurn) = _getTValues(tAmount, _TAX_FEE, _BURN_FEE);\r\n        uint256 currentRate =  _getRate();\r\n        (uint256 rAmount, uint256 rTransferAmount, uint256 rFee) = _getRValues(tAmount, tFee, tBurn, currentRate);\r\n        return (rAmount, rTransferAmount, rFee, tTransferAmount, tFee, tBurn);\r\n    }\r\n\r\n    function _getTValues(uint256 tAmount, uint256 taxFee, uint256 burnFee) private pure returns (uint256, uint256, uint256) {\r\n        uint256 tFee = ((tAmount.mul(taxFee)).div(_GRANULARITY)).div(100);\r\n        uint256 tBurn = ((tAmount.mul(burnFee)).div(_GRANULARITY)).div(100);\r\n        uint256 tTransferAmount = tAmount.sub(tFee).sub(tBurn);\r\n        return (tTransferAmount, tFee, tBurn);\r\n    }\r\n\r\n    function _getRValues(uint256 tAmount, uint256 tFee, uint256 tBurn, uint256 currentRate) private pure returns (uint256, uint256, uint256) {\r\n        uint256 rAmount = tAmount.mul(currentRate);\r\n        uint256 rFee = tFee.mul(currentRate);\r\n        uint256 rBurn = tBurn.mul(currentRate);\r\n        uint256 rTransferAmount = rAmount.sub(rFee).sub(rBurn);\r\n        return (rAmount, rTransferAmount, rFee);\r\n    }\r\n\r\n    function _getRate() private view returns(uint256) {\r\n        (uint256 rSupply, uint256 tSupply) = _getCurrentSupply();\r\n        return rSupply.div(tSupply);\r\n    }\r\n\r\n    function _getCurrentSupply() private view returns(uint256, uint256) {\r\n        uint256 rSupply = _rTotal;\r\n        uint256 tSupply = _tTotal;\r\n        for (uint256 i = 0; i < _excluded.length; i++) {\r\n            if (_rOwned[_excluded[i]] > rSupply || _tOwned[_excluded[i]] > tSupply) return (_rTotal, _tTotal);\r\n            rSupply = rSupply.sub(_rOwned[_excluded[i]]);\r\n            tSupply = tSupply.sub(_tOwned[_excluded[i]]);\r\n        }\r\n        if (rSupply < _rTotal.div(_tTotal)) return (_rTotal, _tTotal);\r\n        return (rSupply, tSupply);\r\n    }\r\n\r\n    function _getTaxFee() private view returns(uint256) {\r\n        return _TAX_FEE;\r\n    }\r\n\r\n    function _getMaxTxAmount() private view returns(uint256) {\r\n        return _MAX_TX_SIZE;\r\n    }\r\n    \r\n    function TAXFEE(uint256 taxFee) external onlyOwner() {\r\n        _TAX_FEE = taxFee;\r\n    }\r\n    \r\n    function BURNFEE(uint256 burnFee) external onlyOwner() {\r\n        _BURN_FEE = burnFee;\r\n    }\r\n\r\n    function burn(uint256 amount) public {\r\n        _burn(_msgSender(), amount);\r\n    }\r\n\r\n    function _burn(address account, uint256 amount) internal {\r\n        require(account != address(0), 'BEP20: burn from the zero address');\r\n        _rOwned[account] = _rOwned[account].sub(amount, 'BEP20: burn amount exceeds balance');\r\n        _tTotal = _tTotal.sub(amount);\r\n        emit Transfer(account, address(0), amount);\r\n    }\r\n\r\n    function _burnFrom(address account, uint256 amount) internal {\r\n        _burn(account, amount);\r\n        _approve(\r\n            account,\r\n            _msgSender(),\r\n            _allowances[account][_msgSender()].sub(amount, 'BEP20: burn amount exceeds allowance')\r\n        );\r\n    }\r\n}",
  "sourcePath": "U:/Cancio/Documents/Disaster Girl Token/src/contracts/Token.sol",
  "compiler": {
    "name": "solc",
    "version": "0.8.4+commit.c7e474f2.Emscripten.clang"
  },
  "schemaVersion": "3.3.4",
  "updatedAt": "2021-05-18T20:43:14.210Z",
  "networkType": "ethereum",
  "devdoc": {
    "kind": "dev",
    "methods": {},
    "version": 1
  },
  "userdoc": {
    "kind": "user",
    "methods": {},
    "version": 1
  }
}